:02000000801E60
:02000300019367
:02000B00807AF9
:1000200075810711671175117BB801FD7008759016
:100030001B75A0138027B40A0575902D801FB40A84
:10004000004009B40F005004B2A38011B40F08752A
:10005000903675A00E8006B4190375A00D7800B413
:100060001EC7E4780180C2E4780179287A6475902B
:100070001B75A0132275A883D28822758902758A00
:1000800006758C06D28C22D9097928DA0504780104
:0F0090007A643220A0087419780179287A6432D2
:00000001FF
