:100A5500020C000002100000021200000208000053
:080A6500020E0000020A00006D
:100A1800D2AFD2A9D2ABD2A8758900438922758CEE
:100A280006758A06758D06758B06D28CD28ED2888D
:010A3800229B
:100A6E00C292D291D290C295D294D293D2A0D2A158
:070A7E00C2A2C2A3D2A42210
:03000B000209C225
:1009C200C0E0C0D0E513B4A015E512B40F10050DB8
:1009D200E50D7002050C75120075130080080513F1
:0B09E200E51370020512D0D0D0E03207
:03001B000209EDEA
:1009ED00C0E0C0D0E509B4A015E508B40F1005119D
:1009FD00E5117002051075080075090080080509DC
:0B0A0D00E50970020508D0D0D0E032EF
:03000300020A39B5
:100A390030A018750C00750D197510007511197510
:0C0A4900080075090075120075130032DA
:10080000120A18E51145107009E50D450C70031228
:100810000A6EE50D640A450C7008C291C294D2922A
:10082000D295C3E511940AE51064809480403AE5BE
:1008300011940FE51064809480502EAE10AF117C9F
:10084000007D02120937ED4C700DE50F450E700763
:10085000F50E750F01B2A3ED4C600EE50F64014576
:100860000E7006F50EF50FB2A3E511640F4510707A
:1008700004D2A3C2A4E50D640F450C700CC2A0D233
:10088000A2C290D291C293D294E50D6419450C7026
:1008900004C2A1D2A0E50D641E450C60030208034A
:0B08A000F50CF50DF510F51102080332
:030000000208AB48
:0C08AB00787FE4F6D8FD7581130208F296
:10093700C2D5EC30E709B2D5E4C39DFDE49CFCEEDB
:1009470030E715B2D5E4C39FFFE49EFE12096DC3DD
:10095700E49DFDE49CFC800312096D30D507C3E4D8
:060967009FFFE49EFE224A
:1008B700020800E493A3F8E493A34003F68001F24F
:1008C70008DFF48029E493A3F85407240CC8C33342
:1008D700C4540F4420C8834004F456800146F6DF11
:1008E700E4800B0102040810204080900A55E47E42
:1008F700019360BCA3FF543F30E509541FFEE49306
:10090700A360010ECF54C025E060A840B8E493A3CC
:10091700FAE493A3F8E493A3C8C582C8CAC583CAF7
:10092700F0A3C8C582C8CAC583CADFE9DEE780BEAF
:010A6D000088
:10096D00BC000BBE0029EF8DF084FFADF022E4CC6E
:10097D00F875F008EF2FFFEE33FEEC33FCEE9DEC37
:10098D00984005FCEE9DFE0FD5F0E9E4CEFD22ED7D
:10099D00F8F5F0EE8420D21CFEADF075F008EF2FC7
:1009AD00FFED33FD4007985006D5F0F222C398FDB8
:0509BD000FD5F0EA2255
:00000001FF
