:02000000801E60
:02000300019565
:02000B00807CF7
:10002000758107116511711177B801FD7008759020
:100030001B75A0137800B40A0575902D7800B40ADA
:10004000004009B40F005004B2A37800B40F087543
:10005000903675A00E7800B4190575A00D7800B41F
:100060001EC7E480C4E47800790075901B75A01366
:100070002275A883D28822758902758A06758C0636
:10008000780179287A64D28C22D9097928DA050492
:1000900078017A643220A0087419780179287A648A
:0100A000322D
:00000001FF
