:100A4C00020A0000020E0000021000000208000062
:040A5C00020C000088
:100A1800D2AFD2A9D2AB758900438922758C0675ED
:0D0A28008A06758D06758B06D28CD28E2243
:100A3500D292C291C290D295C294C293C2A0C2A1D1
:070A4500D2A2D2A3C2A42239
:03000B000209C225
:1009C200C0E0C0D0E511B4A015E510B40F10050BBE
:1009D200E50B7002050A75100075110080080511FB
:0B09E200E51170020510D0D0D0E0320B
:03001B000209EDEA
:1009ED00C0E0C0D0E509B4A015E508B40F10050F9F
:1009FD00E50F7002050E75080075090080080509E0
:0B0A0D00E50970020508D0D0D0E032EF
:10080000120A18E50F450E7009E50B450A70031230
:100810000A35E50B640A450A7008D291D294C29257
:10082000C295C3E50F940AE50E64809480403AE5D2
:100830000F940FE50E64809480502EAE0EAF0F7CA7
:10084000007D02120937ED4C700DE50D450C700767
:10085000F50C750D01B2A3ED4C600EE50D6401457C
:100860000C7006F50CF50DB2A3E50F640F450E7084
:1008700004C2A3D2A4E50B640F450A700CD2A0C237
:10088000A2D290C291D293C294E50B6419450A702A
:1008900004D2A1C2A0E50B641E450A60030208034E
:0B08A000F50AF50BF50EF50F0208033A
:030000000208AB48
:0C08AB00787FE4F6D8FD7581110208F298
:10093700C2D5EC30E709B2D5E4C39DFDE49CFCEEDB
:1009470030E715B2D5E4C39FFFE49EFE12096DC3DD
:10095700E49DFDE49CFC800312096D30D507C3E4D8
:060967009FFFE49EFE224A
:1008B700020800E493A3F8E493A34003F68001F24F
:1008C70008DFF48029E493A3F85407240CC8C33342
:1008D700C4540F4420C8834004F456800146F6DF11
:1008E700E4800B0102040810204080900A4CE47E4B
:1008F700019360BCA3FF543F30E509541FFEE49306
:10090700A360010ECF54C025E060A840B8E493A3CC
:10091700FAE493A3F8E493A3C8C582C8CAC583CAF7
:10092700F0A3C8C582C8CAC583CADFE9DEE780BEAF
:010A60000095
:10096D00BC000BBE0029EF8DF084FFADF022E4CC6E
:10097D00F875F008EF2FFFEE33FEEC33FCEE9DEC37
:10098D00984005FCEE9DFE0FD5F0E9E4CEFD22ED7D
:10099D00F8F5F0EE8420D21CFEADF075F008EF2FC7
:1009AD00FFED33FD4007985006D5F0F222C398FDB8
:0509BD000FD5F0EA2255
:00000001FF
