:1009410002120000020C0000C180020E001B021600
:1009510000130208002D020A00360214000E0210D4
:02096100000D87
:10096400D2AFD2A9D2A85389F0438902758C0675F7
:070974008A06D28CD2882212
:03000B000208EFF9
:1008EF00C0E0C0D0E50DB4A017E50CB40F1205138E
:1008FF00E51370020512750C00750D00D20080080B
:0D090F00050DE50D7002050CD0D0D0E032D2
:0300030002091CD3
:10091C00C0E0C0D075D000C007AFA0EFB5150FE494
:10092C00B5140BF512751319F50CF50DD200D00793
:05093C00D0D0D0E03234
:10088C001209643000FDE51345127006850F908542
:10089C0017A0E513640A45127003850990D3E5137C
:1008AC00940AE51264809480400EE513940FE512CF
:1008BC00648094805002B2A3E513640F4512700655
:1008CC00850B908515A0E5136419451270038511ED
:1008DC00A0C200E513641E451270A8F512F513D2E0
:0308EC000080A0E9
:03000000020800F3
:0C080000787FE4F6D8FD758120020847DF
:10080C0002088CE493A3F8E493A34003F68001F26E
:10081C0008DFF48029E493A3F85407240CC8C333ED
:10082C00C4540F4420C8834004F456800146F6DFBC
:10083C00E4800B0102040810204080900941E47E02
:10084C00019360BCA3FF543F30E509541FFEE493B1
:10085C00A360010ECF54C025E060A840B8E493A378
:10086C00FAE493A3F8E493A3C8C582C8CAC583CAA3
:10087C00F0A3C8C582C8CAC583CADFE9DEE780BE5B
:010963000093
:00000001FF
