:100A2100020A0000020C0000020E00000208000091
:1009ED00D2AFD2A9D2AB758900438922758C067519
:0D09FD008A06758D06758B06D28CD28E226F
:100A0A00D292C291C290D295C294C293C2A0C2A1FC
:070A1A00D2A2D2A3C2A42264
:03000B0002099750
:10099700C0E0C0D0E50FB4A015E50EB40F10050BED
:1009A700E50B7002050A750E00750F008008050F2C
:0B09B700E50F7002050ED0D0D0E0323A
:03001B000209C215
:1009C200C0E0C0D0E509B4A015E508B40F10050DCC
:1009D200E50D7002050C750800750900800805090F
:0B09E200E50970020508D0D0D0E0321B
:100917001209EDE50D450C7009E50B450A70031248
:100927000A0AE50B640A450A7008D291D294C2926A
:10093700C295C3E50D940AE50C648094804013AE1C
:100947000CAF0D7C007D0212088CED64014C700227
:10095700B2A3E50D640F450C7004C2A3D2A4E50B46
:10096700640F450A700CD2A0C2A2D290C291D29352
:10097700C294E50B6419450A7004D2A1C2A0E50B25
:10098700641E450A708DF50AF50BF50CF50D80838D
:03000000020800F3
:0C080000787FE4F6D8FD75810F020847F0
:10088C00C2D5EC30E709B2D5E4C39DFDE49CFCEE87
:10089C0030E715B2D5E4C39FFFE49EFE1208C2C335
:1008AC00E49DFDE49CFC80031208C230D507C3E430
:0608BC009FFFE49EFE22F6
:10080C00020917E493A3F8E493A34003F68001F2E2
:10081C0008DFF48029E493A3F85407240CC8C333ED
:10082C00C4540F4420C8834004F456800146F6DFBC
:10083C00E4800B0102040810204080900A21E47E21
:10084C00019360BCA3FF543F30E509541FFEE493B1
:10085C00A360010ECF54C025E060A840B8E493A378
:10086C00FAE493A3F8E493A3C8C582C8CAC583CAA3
:10087C00F0A3C8C582C8CAC583CADFE9DEE780BE5B
:010A310000C4
:1008C200BC000BBE0029EF8DF084FFADF022E4CC1A
:1008D200F875F008EF2FFFEE33FEEC33FCEE9DECE3
:1008E200984005FCEE9DFE0FD5F0E9E4CEFD22ED29
:1008F200F8F5F0EE8420D21CFEADF075F008EF2F73
:10090200FFED33FD4007985006D5F0F222C398FD63
:050912000FD5F0EA2200
:00000001FF
