:02000000801E60
:02000300019763
:02000B00807EF5
:10002000758107116711731179B801FD700875901A
:100030001B75A0138027B40A0575902D801FB40A84
:10004000004009B40F005004B2A38011B40F08752A
:10005000903675A00E8006B4190575A00D7800B411
:100060001EC7E4780180C2E47800790075901B75A2
:10007000A0132275A883D28822758902758A067515
:100080008C06780179287A64D28C22D9097928DA09
:10009000050478017A643220A0087419780179285F
:0300A0007A64324D
:00000001FF
